:100000000C942A000C9434000C9434000C943400AA
:100010000C9434000C9434000C9434000C94340090
:100020000C9434000C9434000C9434000C94340080
:100030000C9434000C9434000C9434000C94340070
:100040000C9434000C9434000C9434000C94340060
:100050000C94340011241FBECFE5D4E0DEBFCDBF29
:100060000E9436000C9472000C9400008FEF87BB46
:1000700018BA64E8A2E048EC50E071E066B93D9A35
:1000800087B18C7F87B9369A3699FECF85B1282FF4
:1000900030E016B866B9389A369A3699FECF85B1EF
:1000A00090E016B88217930748F478BB88EE93E087
:1000B000FA013197F1F70197D9F70BC028173907E3
:1000C00040F4A8BB88EE93E0FA013197F1F701976D
:1000D000D9F718BA80E197E2FA013197F1F7019761
:0800E00069F2FACFF894FFCF9A
:00000001FF
